:100000000C9446000C9465000C9465000C946500FB
:100010000C9465000C9465000C9465000C946500CC
:100020000C9465000C9465000C9465000C946500BC
:100030000C9465000C9465000C9465000C946500AC
:100040000C9465000C9465000C949C070C9450076C
:100050000C9465000C9465000C9465000C9465008C
:100060000C9465000C9465000C9465000C9465007C
:100070000C9465000C9465000C9465000C9465006C
:100080000C9465000C9465000C94650011241FBE4F
:10009000CFEFD0E1DEBFCDBF15E0A0E0B1E0EEECE8
:1000A000F3E200E00BBF02C007900D92AE33B10740
:1000B000D9F725E0AEE3B5E001C01D92AF3DB20730
:1000C000E1F70E94A70A0C94E5110C940000CF936D
:1000D000DF9300D0CDB7DEB79A83898389819A8177
:1000E0000E948B0B0F900F90DF91CF910895CF93CB
:1000F000DF9300D000D0CDB7DEB79A8389837C83AD
:100100006B832B813C8189819A81B9010E94B80C53
:100110000F900F900F900F90DF91CF910895CF9394
:10012000DF9300D0CDB7DEB79A83898389819A8126
:100130000E94200C0F900F90DF91CF910895CF93E4
:10014000DF9300D000D000D0CDB7DEB79C838B8387
:100150007E836D831A82198219C08B819C818D5A8E
:100160009F4FFC01208131814D815E8189819A817F
:10017000840F951FFC018081F9010995882309F0FE
:100180000FC089819A8101969A8389832D813E814E
:1001900089819A81820F931FFC0180818823E9F66F
:1001A00089819A8126960FB6F894DEBF0FBECDBF27
:1001B000DF91CF910895CF93DF93CDB7DEB72E9720
:1001C0000FB6F894DEBF0FBECDBF98878F837A87B6
:1001D00069875C874B873E872D8789859A850E9432
:1001E000EE0E01960E9467009A83898389819A8125
:1001F000892B19F48FEF9FEF85C029853A85898176
:100200009A81B9010E94E70E8F819885875A9F4F86
:10021000FC01808191819C012F5F3F4F8F819885E8
:10022000875A9F4FFC01318320838F819885875A9D
:100230009F4FFC0120813181C901880F991F820FD6
:10024000931F880F991F9C018F819885895A9F4F12
:10025000FC0180819181B9010E9477009C838B838E
:100260008B819C81892BA1F48F819885875A9F4F20
:10027000FC01808191819C01215031098F819885F9
:10028000875A9F4FFC01318320838FEF9FEF3AC045
:100290008F819885895A9F4F2B813C81FC01318346
:1002A00020838F819885895A9F4FFC01408151811D
:1002B0008F819885875A9F4FFC0120813181C90128
:1002C000880F991F820F931F880F991F0697840F1D
:1002D000951F9E838D838D819E8129813A81FC01AA
:1002E000358324838D819E812B853C85FC01318360
:1002F00020838D819E812D853E85FC013383228361
:1003000080E090E02E960FB6F894DEBF0FBECDBF12
:10031000DF91CF910895CF93DF93CDB7DEB72A97C2
:100320000FB6F894DEBF0FBECDBF98878F837A8754
:1003300069878F819885895A9F4FFC0180819181BF
:100340009A8389838F819885895A9F4FFC014081C8
:1003500051818F819885875A9F4FFC01208131817F
:10036000C901880F991F820F931F880F991F840F4F
:10037000951F9C838B8305C089819A8106969A83F9
:10038000898329813A818B819C812817390761F003
:1003900089819A81FC018481958129853A85B901F9
:1003A0000E94DE0E892B41F729813A818B819C8145
:1003B0002817390719F48FEF9FEF6DC089819A8153
:1003C000FC01848195810E948F000CC029813A81B3
:1003D00089819A8146E0FC013696D90101900D92FF
:1003E0004A95E1F78B819C819C01265031098981D6
:1003F0009A818217930750F38F819885875A9F4F70
:10040000FC01808191819C01215031098F81988567
:10041000875A9F4FFC01318320838F819885875AAB
:100420009F4FFC0120813181C901880F991F820FE4
:10043000931F880F991F9C018F819885895A9F4F20
:10044000FC0180819181B9010E9477009E838D8398
:100450008D819E81892BA1F48F819885875A9F4F2A
:10046000FC01808191819C012F5F3F4F8F81988596
:10047000875A9F4FFC01318320838FEF9FEF0BC082
:100480008F819885895A9F4F2D813E81FC01318350
:10049000208380E090E02A960FB6F894DEBF0FBE6E
:1004A000CDBFDF91CF910895CF93DF93CDB7DEB766
:1004B0002D970FB6F894DEBF0FBECDBF9C878B87FC
:1004C0006D878D85082E000C990B8A30910509F4F3
:1004D000BCC18D30910521F0089709F447C180C156
:1004E0008B859C858F5A9F4FFC01808191812B8544
:1004F0003C85820F931FFC0110821A82198280E2D0
:100500008B837AC02B853C8589819A81820F931FCA
:10051000FC0180818E838B81803209F058C08E81EE
:10052000803209F454C08B859C85835A9F4FFC010F
:10053000808191819C012F5F3F4F8B859C85835AE1
:100540009F4FFC01318320838B859C85835A9F4F6D
:10055000FC01808191819C01220F331F8B859C853A
:10056000855A9F4FFC0180819181B9010E947700DB
:1005700098878F838F819885892B19F48FEF9FEF50
:1005800067C18B859C85855A9F4F2F813885FC01DB
:10059000318320838B859C85855A9F4FFC01208168
:1005A00031818B859C85835A9F4FFC01808191818D
:1005B00081509048880F991F820F931F4B855C854F
:1005C00029813A81240F351FFC01318320838B81DF
:1005D000803259F08E81803241F42B853C858981AF
:1005E0009A81820F931FFC0110828E818B838981F7
:1005F0009A8101969A8389838B859C858F5A9F4F18
:10060000FC012081318189819A818217930708F446
:1006100079CF8B859C858D5A9F4FFC01208131813C
:100620008DE0F90109958B859C858D5A9F4FFC01C2
:10063000208131818AE0F90109958B859C85835A57
:100640009F4FFC0180819181892B09F47BC08B85B0
:100650009C85895A9F4FFC01808191819D838C8369
:100660008B859C85895A9F4FFC01408151818B85E8
:100670009C85875A9F4FFC0120813181C901880FD9
:10068000991F820F931F880F991F840F951F9A87B8
:10069000898705C08C819D8106969D838C832C81E2
:1006A0003D8189859A8528173907A1F08B859C851E
:1006B000855A9F4FFC0180819181FC01208131810D
:1006C0008C819D81FC0184819581B9010E94DE0E9F
:1006D000892B01F72C813D8189859A852817390757
:1006E000D1F08C819D81FC01208131818B859C859D
:1006F000855A9F4FFC01408151818B859C85835A8F
:100700009F4FFC01608171818C819D81FC01828100
:100710009381F90109958B859C85855A9F4FFC0132
:10072000808191810E948F008B859C85835A9F4F89
:10073000FC01118210828B859C85855A9F4FFC019C
:10074000118210828B859C858F5A9F4FFC011182EC
:1007500010828B859C858B5A9F4FFC0120813181B3
:100760008B859C85B9010E949F0070C08B859C85FC
:100770008F5A9F4FFC0180819181892B81F18B855C
:100780009C858D5A9F4FFC012081318188E0F901C1
:1007900009958B859C858D5A9F4FFC012081318165
:1007A00080E2F90109958B859C858D5A9F4FFC014C
:1007B0002081318188E0F90109958B859C858F5ACC
:1007C0009F4FFC01808191819C01215031098B85D3
:1007D0009C858F5A9F4FFC013183208337C036C0E0
:1007E0008B859C858F5A9F4FFC018081918181353B
:1007F000910550F58B859C858F5A9F4FFC01808118
:1008000091812B853C85820F931F2D85FC012083D0
:100810008B859C858F5A9F4FFC01808191819C0123
:100820002F5F3F4F8B859C858F5A9F4FFC013183F3
:1008300020838B859C858D5A9F4FFC0120813181BF
:100840008D85F901099502C001C0000080E090E0AB
:100850002D960FB6F894DEBF0FBECDBFDF91CF91BE
:100860000895CF93DF9300D000D000D0CDB7DEB78E
:100870009E838D838D819E81895A9F4FFC0180814B
:1008800091819A8389838D819E81895A9F4FFC0132
:10089000408151818D819E81875A9F4FFC0120812B
:1008A0003181C901880F991F820F931F880F991FEB
:1008B000840F951F9C838B830CC089819A81FC01D6
:1008C000848195810E948F0089819A8106969A83FE
:1008D000898329813A818B819C812817390769F79F
:1008E0008D819E81895A9F4FFC01808191810E9458
:1008F0008F008D819E818B5A9F4FFC018081918159
:100900000E948F008D819E81855A9F4FFC018081BE
:100910009181892B49F08D819E81855A9F4FFC01E1
:10092000808191810E948F0026960FB6F894DEBFD9
:100930000FBECDBFDF91CF910895CF93DF9300D04D
:1009400000D000D0CDB7DEB79A8389837C836B83D8
:100950005E834D838B819C810E94EE0E01960E94E6
:1009600067009C0189819A818B5A9F4FFC013183DA
:10097000208389819A818B5A9F4FFC0180819181CC
:10098000892B19F48FEF9FEF46C089819A818B5A8A
:100990009F4FFC01808191812B813C81B9010E9494
:1009A000E70E89819A818F5A9F4FFC011182108234
:1009B00089819A81835A9F4FFC011182108289811B
:1009C0009A81855A9F4FFC011182108289819A81F8
:1009D000895A9F4FFC011182108289819A81875A1E
:1009E0009F4FFC011182108289819A818D5A9F4FFD
:1009F0002D813E81FC013183208389819A818B5A2C
:100A00009F4FFC012081318189819A81B9010E9427
:100A10009F0080E090E026960FB6F894DEBF0FBEF0
:100A2000CDBFDF91CF910895CF93DF93CDB7DEB7E0
:100A300062970FB6F894DEBF0FBECDBF9E878D873D
:100A4000788B6F875A8B498B29893A898F8598894A
:100A5000820F931F9A83898389899A899C838B83C8
:100A600089819A819E838D8389819A810197988754
:100A70008F838B819C819A8789878B819C819C87BE
:100A80008B878D859E852AE0FE013396DC010190DF
:100A90000D922A95E1F78D859E8562960FB6F894A2
:100AA000DEBF0FBECDBFDF91CF910895CF93DF930F
:100AB00000D0CDB7DEB79A83898389819A81FC0102
:100AC0002681378189819A81FC018085918541E069
:100AD0002817390709F040E0842F0F900F90DF911D
:100AE000CF910895CF93DF9300D0CDB7DEB79A832F
:100AF000898389819A81FC012085318589819A8148
:100B0000FC01868197812817390700F189819A8134
:100B1000FC01828193819C0189819A81FC018085FD
:100B20009185281B390B89819A81FC0186819781E7
:100B3000AC0189819A81FC0180819181BA01681B95
:100B4000790BCB01820F931F019710C089819A8185
:100B5000FC01868197819C0189819A81FC018085B5
:100B60009185A901481B590BCA0101970F900F905D
:100B7000DF91CF910895CF93DF9300D000D01F92E3
:100B8000CDB7DEB79C838B836D838B819C81FC0109
:100B9000808591859A83898389819A812D81FC0141
:100BA00020838B819C81FC012481358189819A81FC
:100BB0002817390731F48B819C81FC018081918158
:100BC00003C089819A8101962B813C81F90191872B
:100BD00080870F900F900F900F900F90DF91CF9123
:100BE0000895CF93DF9300D000D0CDB7DEB79C83BC
:100BF0008B838B819C81FC01868197819A83898379
:100C00008B819C81FC012481358189819A812817FF
:100C1000390731F48B819C81FC018081918103C073
:100C200089819A8101962B813C81F9019783868382
:100C300089819A81FC0180810F900F900F900F9015
:100C4000DF91CF910895CF93DF93CDB7DEB7F894BE
:100C500081E0DF91CF910895CF93DF9300D0CDB79E
:100C6000DEB79A8389838FE590E029813A81F90183
:100C70002081FC0120830F900F90DF91CF91089588
:100C80000F931F93CF93DF93CDB7DEB728970FB69F
:100C9000F894DEBF0FBECDBF9E838D8378876F83B0
:100CA0001A8219828FE590E0FC0180818C830E947A
:100CB00023068B8321C012C02D813E8189819A81B8
:100CC0008901080F191F89EC95E00E94F105F801D0
:100CD000808389819A8101969A83898389EC95E042
:100CE0000E945605882339F429813A818F8198859D
:100CF0002817390708F31B828B818823E1F6CE0180
:100D000004960E942C0689819A8128960FB6F89441
:100D1000DEBF0FBECDBFDF91CF911F910F91089520
:100D2000CF93DF93CDB7DEB728970FB6F894DEBF29
:100D30000FBECDBF9E838D8378876F831A82198201
:100D40008FE590E0FC0180818C830E9423068B83D9
:100D500021C012C02D813E8189819A81820F931F0B
:100D6000FC018081682F8FE395E00E94BB0589819B
:100D70009A8101969A8389838FE395E00E94720598
:100D8000892B39F029813A818F8198852817390775
:100D900008F31B828B818823E1F6CE0104960E9422
:100DA0002C068AE290E02AE230E0F90120812062FC
:100DB000FC01208389819A8128960FB6F894DEBFC2
:100DC0000FBECDBFDF91CF910895CF93DF93CDB705
:100DD000DEB72C970FB6F894DEBF0FBECDBF9A8357
:100DE0008983CE01039649E455E060E470E00E94F7
:100DF00014058AE0FE013396A9ECB5E001900D924E
:100E00008A95E1F7CE01039649E855E060E470E089
:100E10000E9414058AE0FE013396AFE3B5E001902D
:100E20000D928A95E1F780E990E029813A81232F9C
:100E30003327FC01208389E290E02981FC01208393
:100E40008AE290E028E9FC01208385E990E02EE029
:100E5000FC0120832C960FB6F894DEBF0FBECDBFE9
:100E6000DF91CF910895CF93DF93CDB7DEB780E9BF
:100E700090E0FC01108289E290E0FC0110828BE29C
:100E800090E020E2FC0120838AE290E0FC011082E5
:100E900085E990E026E0FC012083DF91CF91089561
:100EA0001F920F9200905F000F92112400905B0040
:100EB0000F920F931F932F933F934F935F936F93D3
:100EC0007F938F939F93AF93BF93EF93FF93CF93B2
:100ED000DF93CDB7DEB78FE395E00E9456058823F8
:100EE00049F40CE210E08FE395E00E94F105F8016F
:100EF000808309C08AE290E02AE230E0F901208193
:100F00002F7DFC012083DF91CF91FF91EF91BF9165
:100F1000AF919F918F917F916F915F914F913F9191
:100F20002F911F910F910F9000925B000F900092F4
:100F30005F000F901F9018951F920F9200905F0016
:100F40000F92112400905B000F922F933F934F93C9
:100F50005F936F937F938F939F93AF93BF93EF9321
:100F6000FF93CF93DF931F92CDB7DEB789EC95E067
:100F70000E947205892B51F08CE290E0FC01808187
:100F8000682F89EC95E00E94BB0509C08CE290E0D7
:100F9000FC0180818983898181E080933E050F90E7
:100FA000DF91CF91FF91EF91BF91AF919F918F9181
:100FB0007F916F915F914F913F912F910F90009290
:100FC0005B000F9000925F000F901F901895CF93D9
:100FD000DF9300D01F92CDB7DEB789837B836A830E
:100FE00061E070E0CE0101960E949006019719F031
:100FF00080E090E002C08FEF9FEF0F900F900F9076
:10100000DF91CF910895CF93DF93CDB7DEB781E025
:1010100090E00E94E50680E091E09093DA058093ED
:10102000D905DF91CF910895CF93DF931F92CDB76C
:10103000DEB7898361E070E0CE0101960E949006E0
:10104000019711F080E001C08FEF0F90DF91CF91F9
:101050000895CF93DF93CDB7DEB760970FB6F894BE
:10106000DEBF0FBECDBF6D837E838F8398872987B8
:101070003A874B875C878D819E81AF81B885BB2382
:101080007CF48D819E81AF81B885B095A0959095B7
:1010900081959F4FAF4FBF4F8D839E83AF83B8879E
:1010A00089859A85AB85BC85BB237CF489859A8527
:1010B000AB85BC85B095A095909581959F4FAF4F1E
:1010C000BF4F89879A87AB87BC878D819E81AF810F
:1010D000B885892B8A2B8B2B29F489859A85AB853A
:1010E000BC853CC089859A85AB85BC85892B8A2BBC
:1010F0008B2B29F48D819E81AF81B8852FC022C0B2
:101100008D819E81AF81B88529853A854B855C8527
:10111000BC01CD010E94300BDC01CB0189839A8395
:10112000AB83BC8389859A85AB85BC858D839E8383
:10113000AF83B88789819A81AB81BC8189879A877F
:10114000AB87BC8789859A85AB85BC85892B8A2B23
:101150008B2BB1F68D819E81AF81B885BC01CD010D
:1011600060960FB6F894DEBF0FBECDBFDF91CF9172
:101170000895CF93DF93CDB7DEB760970FB6F8949D
:10118000DEBF0FBECDBF9C878B877E876D87588B58
:101190004F878D859E85039729F084E191E00E9419
:1011A0000B0FACC08CE391E09A8389838F8598897B
:1011B0000296FC018081918140E050E060E070E0A7
:1011C0000E94A10DDC01CB018B839C83AD83BE8388
:1011D0008B819C81AD81BE810097A105B04849F00B
:1011E0008B819C81AD81BE818F3F9F4FAF4FBF47A9
:1011F000F9F48F8598890296FC01808191812E8176
:101200002F932D812F932C812F932B812F93292F77
:101210002F938F938A818F9389818F930E94F70EEA
:101220008DB79EB708960FB6F894DEBF0FBECDBF40
:101230008F8598890496FC018081918140E050E07F
:1012400060E070E00E94A10DDC01CB018F839887E4
:10125000A987BA878F819885A985BA850097A10546
:10126000B04849F08F819885A985BA858F3F9F4FF7
:10127000AF4FBF47F9F48F8598890496FC018081B0
:1012800091812A852F9329852F9328852F932F814C
:101290002F93292F2F938F938A818F9389818F93F7
:1012A0000E94F70E8DB79EB708960FB6F894DEBF72
:1012B0000FBECDBF2F81388549855A858B819C8192
:1012C000AD81BE81BC01CD010E942908DC01CB01AA
:1012D0002B2F2F932A2F2F93292F2F938F9384E631
:1012E00091E0892F8F9384E691E08F930E94F70E0F
:1012F0000F900F900F900F900F900F9060960FB679
:10130000F894DEBF0FBECDBFDF91CF910895CF938C
:10131000DF93CDB7DEB7A0970FB6F894DEBF0FBE50
:10132000CDBF9C8B8B8B7E8B6D8B588F4F8B8D891C
:101330009E89039729F08AE691E00E940B0FFEC078
:101340008CE391E09A8389838F89988D0296FC01C2
:101350008081918140E050E060E070E00E94A10D4A
:10136000DC01CB018B839C83AD83BE838B819C810D
:10137000AD81BE810097A105B04849F08B819C8169
:10138000AD81BE818F3F9F4FAF4FBF47F9F48F892B
:10139000988D0296FC01808191812E812F932D8161
:1013A0002F932C812F932B812F93292F2F938F9362
:1013B0008A818F9389818F930E94F70E8DB79EB794
:1013C00008960FB6F894DEBF0FBECDBF8F89988DFB
:1013D0000496FC018081918140E050E060E070E083
:1013E0000E94A10DDC01CB018F839887A987BA8762
:1013F0008F819885A985BA850097A105B04849F0E5
:101400008F819885A985BA858F3F9F4FAF4FBF4782
:10141000F9F48F89988D0496FC01808191812A8549
:101420002F9329852F9328852F932F812F93292F51
:101430002F938F938A818F9389818F930E94F70EC8
:101440008DB79EB708960FB6F894DEBF0FBECDBF1E
:101450002F81388549855A858B819C81AD81BE81DC
:10146000BC01CD010E9429089B01AC018B819C81AC
:10147000AD81BE81BC01CD010E94300BDA01C901F2
:101480008B879C87AD87BE872B853C854D855E8588
:101490008F819885A985BA85BC01CD010E94200B5A
:1014A000DC01CB018F87988BA98BBA8B8F859889AC
:1014B000A989BA892F81388549855A85BC01CD0112
:1014C0000E94300BDA01C9019C01AD018B859C851E
:1014D000AD85BE85281739074A075B07C1F08FE73E
:1014E0008F938FEF8F938FEF8F938FEF8F9382E98F
:1014F00091E0892F8F9382E991E08F930E94F70EFC
:101500000F900F900F900F900F900F9017C08A8937
:101510008F9389898F9388898F938F858F9384E6A2
:1015200091E0892F8F9384E691E08F930E94F70ECC
:101530000F900F900F900F900F900F90A0960FB6F6
:10154000F894DEBF0FBECDBFDF91CF910895CF934A
:10155000DF93CDB7DEB7C056D1090FB6F894DEBF22
:101560000FBECDBF0E940308789484EB91E00E94E7
:101570000B0F44E158E063E375E0CE0101960E9451
:101580009D04892B19F08FEF9FEF50C020E030E0D1
:1015900049EB58E065E375E0CE0101960E94DB005F
:1015A00020E030E047E859E069E375E0CE010196BC
:1015B0000E94DB0085E590E025E530E0F90120811F
:1015C000237EFC012083F894CE01805A9F4F61E076
:1015D00070E00E944006892BA1F07894CE01805AD9
:1015E0009F4FFC018081682FCE0101960E9454021A
:1015F0009923DCF4CE0101960E9431048FEF9FEF16
:1016000015C085E590E025E530E0F90120812062F4
:10161000FC0120837894889585E590E025E530E00D
:10162000F90120812F7DFC012083CDCFC05ADF4FEF
:101630000FB6F894DEBF0FBECDBFDF91CF910895F6
:10164000DB018F939F930E944F0BBF91AF91A29F9D
:10165000800D911DA39F900DB29F900D11240895B0
:10166000052E97FB1EF400940E94470B57FD07D0F0
:101670000E945A0B07FC03D04EF40C94470B509574
:101680004095309521953F4F4F4F5F4F089590956E
:101690008095709561957F4F8F4F9F4F08950E9461
:1016A0007C0BA59F900DB49F900DA49F800D911D64
:1016B00011240895A1E21A2EAA1BBB1BFD010DC027
:1016C000AA1FBB1FEE1FFF1FA217B307E407F507F2
:1016D00020F0A21BB30BE40BF50B661F771F881FCE
:1016E000991F1A9469F760957095809590959B0164
:1016F000AC01BD01CF010895A29FB001B39FC0010D
:10170000A39F700D811D1124911DB29F700D811D2D
:101710001124911D0895CF93DF938230910510F429
:1017200082E090E0E091D505F091D60520E030E030
:10173000C0E0D0E0309711F140815181481759073E
:10174000C0F04817590761F482819381209719F0FE
:101750009B838A832BC09093D6058093D50526C0A2
:101760002115310519F04217530718F49A01BE01EB
:10177000DF01EF010280F381E02DDCCF211531057F
:1017800009F1281B390B2430310590F412968D9104
:101790009C9113976115710521F0FB01938382835E
:1017A00004C09093D6058093D505FD01329644C0C0
:1017B000FD01E20FF31F81939193225031092D9384
:1017C0003C933AC02091D3053091D405232B41F4AA
:1017D00020911001309111013093D4052093D3054D
:1017E00020910E0130910F012115310541F42DB7E3
:1017F0003EB74091120150911301241B350BE0912B
:10180000D305F091D405E217F307A0F42E1B3F0B8C
:101810002817390778F0AC014E5F5F4F2417350762
:1018200048F04E0F5F1F5093D4054093D30581932A
:10183000919302C0E0E0F0E0CF01DF91CF910895F5
:101840000F931F93CF93DF93009709F48CC0FC0193
:101850003297138212820091D5051091D605011599
:10186000110581F420813181820F931F2091D305CE
:101870003091D4052817390779F5F093D405E09312
:10188000D30571C0D80140E050E0AE17BF0750F457
:1018900012962D913C911397AD012115310509F157
:1018A000D901F3CF9D01DA013383228360817181F5
:1018B000860F971F8217930769F4EC0128813981FD
:1018C000260F371F2E5F3F4F318320838A819B81F4
:1018D00093838283452B29F4F093D605E093D505B5
:1018E00042C01396FC93EE931297ED0149915991E2
:1018F0009E01240F351FE217F30771F48081918157
:10190000840F951F029611969C938E9382819381EA
:1019100013969C938E931297E0E0F0E0D801129614
:101920008D919C911397009719F0F8018C01F6CFD7
:101930008D919C9198012E5F3F4F820F931F2091B4
:10194000D3053091D4052817390769F4309729F465
:101950001092D6051092D50502C013821282109300
:10196000D4050093D305DF91CF911F910F91089576
:101970006F927F928F929F92AF92BF92CF92DF929F
:10198000EF92FF920F931F93CF93DF93EC01009799
:1019900089F4CB01DF91CF911F910F91FF90EF90D0
:1019A000DF90CF90BF90AF909F908F907F906F907F
:1019B0000C948B0BFC01E60FF71F9C0122503109A0
:1019C000E217F30708F4ACC0D9010D911C911197EF
:1019D00006171707B0F00530110508F49FC0C801BD
:1019E00004978617970708F499C002501109061B3F
:1019F000170B019311936D937C93CF010E94200CE0
:101A00008DC05B01A01AB10A4C01800E911EA091FD
:101A1000D505B091D60540E050E0E12CF12C1097AF
:101A200009F44AC0A815B905D1F56D907C901197BD
:101A3000630182E0C80ED11CCA14DB0480F1A3014B
:101A40004A195B096A0182E0C80ED11C1296BC904B
:101A500012971396AC91B5E0CB16D10440F0B28248
:101A6000A38351834083D9016D937C930AC00E5F99
:101A70001F4FC301800F911FF90191838083EB2DCC
:101A8000FA2FE114F10431F0D7011396FC93EE9391
:101A9000129744C0F093D605E093D5053FC08D91D1
:101AA0009C9111974817590708F4AC017D011296D3
:101AB0000D90BC91A02DB3CF8091D3059091D4050A
:101AC00088159905E1F446175707C8F480910E016F
:101AD00090910F01009741F48DB79EB7409112018C
:101AE00050911301841B950BE817F907C8F4F09384
:101AF000D405E093D305F901718360830FC0CB0156
:101B00000E948B0B7C01009759F0A801BE010E9436
:101B1000D50ECE010E94200CC70104C0CE0102C028
:101B200080E090E0DF91CF911F910F91FF90EF90B7
:101B3000DF90CF90BF90AF909F908F907F906F90ED
:101B400008952F923F924F925F926F927F928F9261
:101B50009F92AF92BF92CF92DF92EF92FF920F933C
:101B60001F93CF93DF935C016B017A0161157105BF
:101B700019F0FB0191838083E114F10429F0C7017E
:101B80000297839708F0F1C0E5012196F5011081D5
:101B9000812F90E00E94CC0E892B11F05E01F4CFD2
:101BA0001D3229F42196F501118101E007C01B3295
:101BB00021F4E5012296F501118100E0E114F10420
:101BC00059F1F0E1EF16F10461F41033E1F488818A
:101BD0008F7D883569F519812296026070E1E72EC4
:101BE000F12C88E0E816F10439F12CF4F2E0EF165C
:101BF000F104C9F12AC08AE0E816F10479F0E0E1C5
:101C0000EE16F10411F550E1E52EF12C812C912C0A
:101C1000A12C68E0B62E2CC01033C9F23AE0E32EB6
:101C2000F12C4CEC842E982CA82C4CE0B42E20C027
:101C300010E3E114F104A9F698E0E92EF12C812CCF
:101C4000912CA12C20E1B22E13C060E070E080E066
:101C500090E897010F2C000C440B550B0E945A0B77
:101C600049015A0105C0812C912CA12C80E4B82E89
:101C700060E020E030E0A90127010F2C000C66088D
:101C800077081E01E0EDE10FEA3060F08FEB810F85
:101C90008A3110F4E9EC05C08FE9810F8A3128F50B
:101CA000E9EAE10F8E2F90E08E159F05F4F467FDB1
:101CB00018C082169306A406B50690F0C301B201BF
:101CC0000E94200B9B01AC012E0F311D411D511DA7
:101CD000213031054105F0E85F0710F461E001C0F3
:101CE0006FEF2196F1011081CCCF802F8170C1144C
:101CF000D10471F0662329F02197F601D183C083C6
:101D000007C001FF19C02297F601D183C08314C018
:101D100067FF12C0811105C02FEF3FEF4FEF5FE764
:101D200004C020E030E040E050E882E290E0909390
:101D3000DE058093DD0516C0882341F0509540955F
:101D4000309521953F4F4F4F5F4F0CC057FF0AC052
:101D500082E290E09093DE058093DD052FEF3FEF68
:101D60004FEF5FE7B901CA0104C060E070E080E0B6
:101D700090E0DF91CF911F910F91FF90EF90DF9056
:101D8000CF90BF90AF909F908F907F906F905F901B
:101D90004F903F902F90089591110C9436118032FE
:101DA00019F089508550C8F70895FB01DC0102C085
:101DB00001900D9241505040D8F70895FB01DC018D
:101DC0008D91019080190110D9F3990B0895FB01B1
:101DD000DC0101900D920020E1F70895FC010190D3
:101DE0000020E9F7809590958E0F9F1F0895CF935F
:101DF000DF93CDB7DEB7AE014B5F5F4FFA01619164
:101E00007191AF018091D9059091DA050E943B0F45
:101E1000DF91CF9108950F931F93CF93DF93E091BC
:101E2000D905F091DA05238121FF1BC08C01D0E098
:101E3000C0E0F80181918F016091D9057091DA05B8
:101E4000DB011896ED91FC911997882331F00995E3
:101E5000892B79F3DFEFCFEFECCF8AE00995892B5F
:101E600019F08FEF9FEF02C08D2F9C2FDF91CF9144
:101E70001F910F9108952F923F924F925F926F9210
:101E80007F928F929F92AF92BF92CF92DF92EF920A
:101E9000FF920F931F93CF93DF93CDB7DEB72C97AD
:101EA0000FB6F894DEBF0FBECDBF7C016B018A0177
:101EB000FC0117821682838181FFBDC1CE0101968C
:101EC0004C01F7019381F60193FD859193FF819178
:101ED0006F01882309F4ABC1853239F493FD8591F4
:101EE00093FF81916F01853229F4B70190E00E9440
:101EF0004F11E7CF512C312C20E02032A0F48B324F
:101F000069F030F4803259F0833269F420612CC0DA
:101F10008D3239F0803339F4216026C0226024608C
:101F200023C0286021C027FD27C030ED380F3A308C
:101F300078F426FF06C0FAE05F9E300D1124532E80
:101F400013C08AE0389E300D1124332E20620CC05D
:101F50008E3221F426FD6BC1206406C08C3611F44C
:101F6000206802C0883641F4F60193FD859193FF05
:101F700081916F018111C1CF982F9F7D955493302E
:101F800028F40C5F1F4FFFE3F9830DC0833631F057
:101F9000833771F0833509F05BC022C0F80180817E
:101FA00089830E5F1F4F44244394512C540115C064
:101FB0003801F2E06F0E711CF801A080B18026FF9D
:101FC00003C0652D70E002C06FEF7FEFC5012C8765
:101FD0000E9444112C0183012C852F77222E17C0DB
:101FE0003801F2E06F0E711CF801A080B18026FF6D
:101FF00003C0652D70E002C06FEF7FEFC5012C8735
:102000000E9439112C012C852068222E830123FC8B
:102010001BC0832D90E048165906B0F4B70180E24A
:1020200090E00E944F113A94F4CFF50127FC85917E
:1020300027FE81915F01B70190E00E944F1131109E
:102040003A94F1E04F1A51084114510471F7E5C078
:10205000843611F0893639F5F80127FF07C0608111
:102060007181828193810C5F1F4F08C060817181F3
:10207000072E000C880B990B0E5F1F4F2F76722EC8
:1020800097FF09C090958095709561957F4F8F4F10
:102090009F4F2068722E2AE030E0A4010E94871131
:1020A000A82EA81844C0853729F42F7EB22E2AE026
:1020B00030E025C0F22FF97FBF2E8F36C1F018F423
:1020C000883579F0B4C0803719F0883721F0AFC077
:1020D0002F2F2061B22EB4FE0DC08B2D8460B82E40
:1020E00009C024FF0AC09F2F9660B92E06C028E0C1
:1020F00030E005C020E130E002C020E132E0F8012C
:10210000B7FE07C060817181828193810C5F1F4F90
:1021100006C06081718180E090E00E5F1F4FA401D6
:102120000E948711A82EA818FB2DFF777F2E76FE20
:102130000BC0372D3E7FA51450F474FE0AC072FC0C
:1021400008C0372D3E7E05C0BA2C372D03C0BA2CEF
:1021500001C0B52C34FF0DC0FE01EA0DF11D8081D8
:10216000803311F4397E09C032FF06C0B394B394B2
:1021700004C0832F867809F0B39433FD13C030FF79
:1021800006C05A2CB31418F4530C5B18B32CB314B8
:1021900068F4B70180E290E03C870E944F11B3944D
:1021A0003C85F5CFB31410F43B1801C0312C34FF3B
:1021B00012C0B70180E390E03C870E944F113C853C
:1021C00032FF17C031FD03C088E790E002C088E508
:1021D00090E0B7010CC0832F867859F031FF02C020
:1021E0008BE201C080E237FD8DE2B70190E00E94F2
:1021F0004F11A51438F4B70180E390E00E944F110D
:102200005A94F7CFAA94F401EA0DF11D8081B70129
:1022100090E00E944F11A110F5CF332009F451CE68
:10222000B70180E290E00E944F113A94F6CFF70197
:102230008681978102C08FEF9FEF2C960FB6F8949E
:10224000DEBF0FBECDBFDF91CF911F910F91FF90E9
:10225000EF90DF90CF90BF90AF909F908F907F9046
:102260006F905F904F903F902F9008959927882707
:102270000895FC010590615070400110D8F78095D9
:1022800090958E0F9F1F0895FC0161507040019042
:102290000110D8F7809590958E0F9F1F08950F938A
:1022A0001F93CF93DF93FB01238121FD03C08FEFA9
:1022B0009FEF28C022FF16C04681578124813581B7
:1022C0004217530744F4A081B1819D012F5F3F4F16
:1022D000318320838C93268137812F5F3F4F378353
:1022E000268310C0EB01092F182F0084F185E02D03
:1022F0000995892BE1F68E819F8101969F838E83BC
:10230000812F902FDF91CF911F910F910895FA01A6
:10231000AA27283051F1203181F1E8946F936E7F24
:102320006E5F7F4F8F4F9F4FAF4FB1E03ED0B4E015
:102330003CD0670F781F891F9A1FA11D680F791F56
:102340008A1F911DA11D6A0F711D811D911DA11D67
:1023500020D009F468943F912AE0269F1124301977
:10236000305D3193DEF6CF010895462F4770405D12
:102370004193B3E00FD0C9F7F6CF462F4F70405DC1
:102380004A3318F0495D31FD4052419302D0A9F71C
:10239000EACFB4E0A6959795879577956795BA9516
:1023A000C9F700976105710508959B01AC010A2EDC
:1023B00006945795479537952795BA95C9F7620FB3
:0E23C000731F841F951FA01D0895F894FFCF72
:1023CE000000000200000000E7070000000000000F
:1023DE00DF052000496E76616C6964206E756D6252
:1023EE006572206F6620617267732C2067636420AC
:1023FE00726571756972657320320D0025732063E5
:10240E006C616D70656420746F20256C6420746F30
:10241E002066697420696E746F203332206269748D
:10242E00730D0A00256C640D0A00496E76616C69A5
:10243E0064206E756D626572206F662061726773BF
:10244E002C206C636D207265717569726573203214
:10245E000D006F766572666C6F77206465746563C8
:10246E007465642C20726573756C74203E20256C27
:10247E00640D0A0054686973207465726D696E612B
:10248E006C20697320636F6E6E656374656420746F
:10249E006F2074686520554152543020706F7274ED
:1024AE00206F6620612073696D756C6174656420A0
:1024BE004156522E205468697320746578742061D9
:1024CE006E64207468652070726F6D707420626522
:1024DE006C6F7720617265207072696E746564200E
:1024EE006279207468652064656661756C7420700D
:1024FE00726F6772616D2C20796F752063616E202B
:10250E006C6F616420796F7572206F776E207072B8
:10251E006F6772616D2062792062726F7773696E78
:10252E006720666F722061202E6865782066696C60
:10253E006520616E642068697474696E67207468C2
:10254E0065206C6F616420627574746F6E206162B9
:10255E006F76652E0D0A0D0A5468657265206973D3
:10256E00206120636F7079206F6620746869732014
:10257E0064656661756C742070726F6772616D2030
:10258E00617320616E2041746D656C2053747564A7
:10259E00696F2070726F6A656374206F6E20746845
:1025AE0065204156526A73204769744875622070DF
:1025BE006167653A2068747470733A2F2F67697477
:1025CE006875622E636F6D2F6176726A73206974FF
:1025DE0020636F6E7461696E732055415254207280
:1025EE006F7574696E657320616E6420696D706CB1
:1025FE00656D656E7473207072696E746620746F8B
:10260E002067657420796F752073746172746564C8
:10261E00207072696E74696E67207468696E677374
:10262E0020746F2074686973207465726D696E61B1
:10263E006C2E0D0A0D0A427567207265706F7274EA
:10264E007320616E642070756C6C20726571756597
:10265E0073747320617265206D6F73742077656C6F
:10266E00636F6D652C20706C656173652075736585
:10267E0020746865204156526A7320476974487504
:10268E00622070616765206C696E6B656420696E8F
:10269E002074686520666F6F7465722E20546861B1
:1026AE006E6B73210D0A0D0A44656D6F2074657291
:1026BE006D696E616C20636F6D6D616E64733A0D42
:1026CE000A2267636420612062220D0A77686572B0
:1026DE0065206120616E6420622061726520696EE2
:1026EE007465676572732C207468697320636F6DEF
:1026FE006D616E642077696C6C207072696E7420E7
:10270E0074686520677265617465737420636F6D9C
:10271E006D6F6E2064697669736F72206F662074B8
:10272E0068652032206E756D626572732070726FEF
:10273E00766964696E6720746865792063616E20BE
:10274E0066697420696E207369676E656420333222
:10275E002062697420696E74730D0A226C636D2099
:10276E00612062220D0A7768657265206120616EB4
:10277E006420622061726520696E7465676572738C
:10278E002C207468697320636F6D6D616E642077A1
:10279E00696C6C207072696E7420746865206C6F41
:1027AE007765737420636F6D6D6F6E206D756C74CD
:1027BE0069706C65206F66207468652032206E75B6
:1027CE006D626572732070726F766964696E6720D0
:1027DE0069742063616E2066697420696E206120C1
:1027EE007369676E65642033322062697420696E86
:0E27FE00740D002400676364006C636D0000BE
:00000001FF
