:1000000045C0000061C000005FC000005DC000008E
:100010005BC0000059C0000057C0000055C0000080
:1000200053C0000051C000004FC000004DC0000090
:100030004BC0000049C0000047C0000045C00000A0
:1000400043C0000041C000003FC000003DC00000B0
:100050003BC0000039C0000037C0000035C00000C0
:1000600033C0000031C000002FC000002DC00000D0
:100070002BC0000029C0000027C0000025C00000E0
:1000800023C0000021C000001FC0000011241FBEBB
:10009000CFEFD0E1DEBFCDBF15E0A0E0B1E0E4E8F6
:1000A000F6E100E00BBF02C007900D92A63DB1073C
:1000B000D9F725E0A6EDB5E001C01D92A23EB2073A
:1000C000E1F7F5D10C94400B9BCFCF93DF93EC017C
:1000D0008881882329F0219658D289918111FCCFFB
:1000E00081E090E0DF91CF910895CF92DF92EF927F
:1000F000FF92611571058105910529F421153105DE
:100100004105510591F16B017C0199233CF4CC240C
:10011000DD247601C61AD70AE80AF90AAC2DFD2DAE
:10012000EE2DBF2D69017A0155233CF4CC24DD244A
:100130007601C21AD30AE40AF50AC114D104E10413
:10014000F104C1F06A2F7F2F8E2F9B2FA7019601FC
:100150000ED4611571058105910589F0AC2DFD2D39
:10016000EE2DBF2D6B017C01EDCF6FEF7FEF8FEF99
:100170009FEF09C06A2F7F2F8E2F9B2F04C06C2DFD
:100180007D2D8E2D9F2DFF90EF90DF90CF900895C5
:100190008F929F92AF92BF92CF92DF92EF92FF9297
:1001A000CF93DF93EA016330710521F084E191E0A0
:1001B000A3D79CC04AE050E060E070E08A819B8158
:1001C00038D66B017C01C114D104E10480E8F80643
:1001D000B9F480E88F931F921F921F928F931F9202
:1001E0001F921F928BE391E09F938F9374D78DB7EB
:1001F0009EB70A960FB6F8949EBF0FBE8DBF1EC065
:100200009FEFC916D906E9069FE7F906B9F49FE7FB
:100210009F938FEF8F938F938F939F938F938F9352
:100220008F9383E691E09F938F9355D78DB79EB7B9
:100230000A960FB6F8949EBF0FBE8DBF4AE050E0FD
:1002400060E070E08C819D81F4D54B015C018114EC
:100250009104A10490E8B906B9F480E88F931F9245
:100260001F921F928F931F921F921F928BE891E013
:100270009F938F9330D78DB79EB70A960FB6F89499
:100280009EBF0FBE8DBF1EC09FEF89169906A9069F
:100290009FE7B906B9F49FE79F938FEF8F938F93F2
:1002A0008F939F938F938F938F9383EB91E09F9383
:1002B0008F9311D78DB79EB70A960FB6F8949EBF4D
:1002C0000FBE8DBFA5019401C701B6010EDF9F933C
:1002D0008F937F936F938EE591E09F938F93FBD6DF
:1002E0000F900F900F900F900F900F90DF91CF9184
:1002F000FF90EF90DF90CF90BF90AF909F908F9046
:1003000008958F929F92AF92BF92CF92DF92EF9219
:10031000FF920F931F93CF93DF93EA016330710530
:1003200021F08BED91E0E8D6B5C04AE050E060E006
:1003300070E08A819B817DD54B015C018114910421
:10034000A10480E8B806B9F480E88F931F921F9249
:100350001F928F931F921F921F928BE391E09F93A6
:100360008F93B9D68DB79EB70A960FB6F8949EBFF5
:100370000FBE8DBF1EC09FEF89169906A9069FE785
:10038000B906B9F49FE79F938FEF8F938F938F9365
:100390009F938F938F938F9383E691E09F938F9397
:1003A0009AD68DB79EB70A960FB6F8949EBF0FBE29
:1003B0008DBF4AE050E060E070E08C819D8139D5CE
:1003C0006B017C01C114D104E10490E8F906B9F491
:1003D00080E88F931F921F921F928F931F921F92FC
:1003E0001F928BE891E09F938F9375D68DB79EB740
:1003F0000A960FB6F8949EBF0FBE8DBF1EC09FEF2A
:10040000C916D906E9069FE7F906B9F49FE79F9355
:100410008FEF8F938F938F939F938F938F938F9360
:1004200083EB91E09F938F9356D68DB79EB70A9634
:100430000FB6F8949EBF0FBE8DBFA7019601C501F0
:10044000B40153DE9B01AC01C501B40190D2490156
:100450005A01C701B6017CD2C62FD72F182F092FFA
:10046000A701960184D2281539054A055B0519F0C4
:1004700082E092E041D60F931F93DF93CF938EE5F6
:1004800091E09F938F9327D60F900F900F900F902E
:100490000F900F90DF91CF911F910F91FF90EF90F0
:1004A000DF90CF90BF90AF909F908F900895FF9274
:1004B0000F931F93CF93DF93CDB7DEB7C156D1090A
:1004C0000FB6F894DEBF0FBECDBF7BD045E650E03F
:1004D00060E372E0CE010196FFD1892B09F046C09E
:1004E00020E030E048EC50E062E372E0CE0101969B
:1004F00072D020E030E041E851E066E372E0CE01E6
:10050000019669D08AE392E0F7D56AE0CE010196C0
:10051000C8D010E0F12C0AE0CE018F599F4F3DD09A
:1005200018161906CCF7A2968FADA2978D3039F424
:100530001A30D1F0A2960FAFA297182F05C08A30BB
:1005400019F41D3089F0182FA2968FADA2971DD0F7
:10055000A2966FADA297CE010196A3D09923E4F69F
:10056000CE0101967BD102C01F2DD6CF8FEF9FEF1A
:10057000CF59DF4F0FB6F894DEBF0FBECDBFDF916E
:10058000CF911F910F91FF9008955D9BFECF8CB985
:100590000895FBDF80E090E008955F9B06C02CB1DA
:1005A000FC01208381E090E0089580E090E00895D0
:1005B00089B99093900088E18AB98EE08093950084
:1005C000089583E390E0F4DF86E091E09093DD0509
:1005D0008093DC050895AF92BF92CF92DF92EF92A5
:1005E000FF920F931F93CF93DF93EC018B015A017E
:1005F0006901FB0101900020E9F7CF01861B970BF1
:100600000DD27C01009709F43FC0B8015DD5FE0111
:10061000E75AFF4F80819181019691838083BC01CD
:10062000660F771F860F971FBC01660F771F3297E3
:10063000808191811AD3009751F4C75ADF4F888186
:1006400099810197998388838FEF9FEF1FC0FE01E7
:10065000E95AFF4F91838083C75ADF4F2881398140
:10066000F901EE0FFF1F2E0F3F1FF901EE0FFF1FC5
:100670003697E80FF91FF582E482B182A082D38217
:10068000C28280E090E002C08FEF9FEFDF91CF91B8
:100690001F910F91FF90EF90DF90CF90BF90AF90A0
:1006A00008958F929F92AF92BF92CF92DF92EF9276
:1006B000FF920F931F93CF93DF93EC01162F6A30B5
:1006C00009F067C0FC01ED5AFF4F0190F081E02D69
:1006D000E80FF91F1282FC01E35AFF4FC080D1805E
:1006E000C114D10409F444C03697808091803296B9
:1006F000808191818C01000F111F800F911F8C014F
:10070000000F111F080D191D8016910611F1329668
:10071000A080B180D501ED90FC9006C0B6E08B0EB4
:10072000911C08151905A9F0B701F4018481958180
:10073000C2D4892B99F70815190559F0D401ED9108
:10074000FC911197A501B60112968D919C9113977A
:1007500009958E01055A1F4FF80180819181F6D1CC
:10076000FE01E35AFF4F11821082D8011D921C92A4
:10077000FE01E15AFF4F80E280833C971182108294
:10078000DE01AB5ABF4FE881F9818D919C910995AB
:1007900058C0FC01E15AFF4F8081803209F04EC001
:1007A000603291F1329780819181019691838083AB
:1007B000BC01660F771F32978081918156D20097D6
:1007C000D1F1FE01E55AFF4F91838083329620815B
:1007D000318121503048220F331FDC01A20FB31F9B
:1007E0003A97208131812E5F3F4F2C0F3D1F2D9373
:1007F0003C930AC0FE01ED5AFF4F0190F081E02DBD
:10080000EC0FFD1F128209C0FE01ED5AFF4F01904F
:10081000F081E02DEC0FFD1F1283FE01E15AFF4F26
:100820001083CD5ADF4F88819981019699838883FF
:1008300080E090E006C08FEF9FEF03C0603221F7A9
:10084000D9CFDF91CF911F910F91FF90EF90DF9063
:10085000CF90BF90AF909F908F900895EF92FF92AE
:100860000F931F93CF93DF937C01FC01E95AFF4F55
:10087000C081D1813296808191818C01000F111F3E
:10088000800F911F8C01000F111F0C0F1D1FC0172F
:10089000D10739F08C819D8159D126960C171D07FF
:1008A000C9F7F701E95AFF4F808191814FD1F701D4
:1008B000EB5AFF4F8081918149D1F701E55AFF4FF3
:1008C00080819181009709F041D1DF91CF911F91F3
:1008D0000F91FF90EF900895EF92FF920F931F9367
:1008E000CF93DF93EC018B017A01FB010190002093
:1008F000E9F7CF01861B970B91D0FE01EB5AFF4F12
:10090000918380830097D9F0B801DED3FE01E15ACC
:10091000FF4F80E280833C97118210823A961182C9
:10092000108232971182108234971182108232968F
:1009300011821082F982E88280E090E002C08FEF9D
:100940009FEFDF91CF911F910F91FF90EF9008954E
:10095000DB018F939F9327D0BF91AF91A29F800D12
:10096000911DA39F900DB29F900D11240895052E07
:1009700097FB16F400940FD057FD05D01ED007FC4E
:1009800002D046F408C050954095309521953F4FD0
:100990004F4F5F4F089590958095709561957F4F6B
:1009A0008F4F9F4F08952BD0A59F900DB49F900D12
:1009B000A49F800D911D11240895A1E21A2EAA1B57
:1009C000BB1BFD010DC0AA1FBB1FEE1FFF1FA217FF
:1009D000B307E407F50720F0A21BB30BE40BF50BFC
:1009E000661F771F881F991F1A9469F76095709585
:1009F000809590959B01AC01BD01CF010895A29F08
:100A0000B001B39FC001A39F700D811D1124911DE2
:100A1000B29F700D811D1124911D0895CF93DF9316
:100A20008230910510F482E090E0E091D805F091D9
:100A3000D90520E030E0A0E0B0E0309739F1408106
:100A4000518148175907B8F04817590771F4828146
:100A50009381109729F013969C938E9312972CC034
:100A60009093D9058093D80527C02115310531F021
:100A70004217530718F0A901DB0101C0EF019A01E9
:100A8000BD01DF010280F381E02DD7CF21153105B3
:100A9000F9F0281B390B2430310580F48A819B81C1
:100AA0006115710521F0FB019383828304C090934B
:100AB000D9058093D805FE01329644C0FE01E20FAD
:100AC000F31F8193919322503109398328833AC0CF
:100AD0002091D6053091D705232B41F420910201B6
:100AE000309103013093D7052093D6052091000162
:100AF000309101012115310541F42DB73EB74091E8
:100B0000040150910501241B350BE091D605F091AD
:100B1000D705E217F307A0F42E1B3F0B2817390760
:100B200078F0AC014E5F5F4F2417350748F04E0F49
:100B30005F1F5093D7054093D6058193919302C0D0
:100B4000E0E0F0E0CF01DF91CF910895CF93DF9304
:100B5000009709F487C0FC01329713821282C0917A
:100B6000D805D091D905209781F420813181280FB3
:100B7000391F8091D6059091D7058217930779F593
:100B8000F093D705E093D6056DC0DE0120E030E09C
:100B9000AE17BF0750F412964D915C9113979D01CB
:100BA0004115510509F1DA01F3CFB383A2834081E6
:100BB0005181840F951F8A179B0771F48D919C9129
:100BC0001197840F951F02969183808312968D91C1
:100BD0009C911397938382832115310529F4F09317
:100BE000D905E093D8053EC0D9011396FC93EE9346
:100BF00012974D915D91A40FB51FEA17FB0779F489
:100C000080819181840F951F0296D90111969C9342
:100C10008E938281938113969C938E931297E0E03A
:100C2000F0E08A819B81009719F0FE01EC01F9CF79
:100C3000CE01029628813981820F931F2091D6051B
:100C40003091D7052817390769F4309729F41092A5
:100C5000D9051092D80502C013821282D093D7050D
:100C6000C093D605DF91CF9108956F927F928F92B6
:100C70009F92AF92BF92CF92DF92EF92FF920F932B
:100C80001F93CF93DF93EC01CB01209779F4DF9191
:100C9000CF911F910F91FF90EF90DF90CF90BF9079
:100CA000AF909F908F907F906F90B8CEFE01E60F2F
:100CB000F71F9E0122503109E217F30708F4A8C07C
:100CC000D9010D911C91119706171707B0F0053047
:100CD000110508F49BC0A801445051094617570755
:100CE00008F494C002501109061B170B01931193CD
:100CF0006D937C93CF012ADF89C05B01A01AB10AF2
:100D00004E01800E911EA091D805B091D905612C9D
:100D1000712C60E070E0109709F449C0A815B9057E
:100D2000C9F5ED90FC901197670142E0C40ED11C0B
:100D3000CA14DB0478F147018A189B08640142E079
:100D4000C40ED11C1296BC9012971396AC91B5E0CC
:100D5000CB16D10440F0B282A38391828082D90164
:100D60008D939C9309C00E5F1F4F0E0D1F1DF9013F
:100D700011830083EB2DFA2F6115710531F0DB0132
:100D80001396FC93EE93129741C0F093D905E0932C
:100D9000D8053CC06D917C9111976616770608F4D2
:100DA0003B01BD0112960D90BC91A02DB4CF609176
:100DB000D6057091D70568157905E9F468167906A6
:100DC000D0F440910001509101014115510541F4C9
:100DD0004DB75EB76091040170910501461B570B3A
:100DE000E417F507A8F4F093D705E093D605F901C9
:100DF000918380830BC012DE7C01009749F0A8012B
:100E0000BE0150D1CE01A2DEC70104C0CE0102C096
:100E100080E090E0DF91CF911F910F91FF90EF90D4
:100E2000DF90CF90BF90AF909F908F907F906F900A
:100E300008952F923F925F926F927F928F929F922E
:100E4000AF92BF92CF92DF92EF92FF920F931F93D8
:100E5000CF93DF938B01EA016115710521F0DB016E
:100E60008C9311969C93209739F09E012250310962
:100E70002332310508F0F8C07C016701BFEFCB1ABF
:100E8000DB0A5601F7016080862D90E003D1892BA3
:100E900011F07601F2CFFDE26F120AC0570182E035
:100EA000A80EB11CD70111966C90772473940BC0D7
:100EB000BBE26B1207C05701E2E0AE0EB11CD701D6
:100EC00011966C90712CCE018F7E892B89F4B0E342
:100ED0006B1222C0F50180818F7D883541F56180DC
:100EE000F2E0AF0EB11C872D8260782EC0E1D0E019
:100EF000C830D105F1F04CF4C230D10511F5C12C48
:100F0000D12CE12CB0E4FB2E2EC0CA30D10531F03B
:100F1000C031D10519F115C0209751F7CAE0D0E0D2
:100F2000ACECCA2EDC2CEC2CACE0FA2E1CC02097CA
:100F3000F9F6C8E0D0E0C12CD12CE12CF0E1FF2E75
:100F400012C060E070E080E090E89E01442737FD29
:100F50004095542F32DD69017A0105C0C12CD12C96
:100F6000E12CE8E0FE2EF50160E020E030E0A90190
:100F70004E01AA2497FCA094BA2C1F0170ED572EA5
:100F8000560CA9E0A51570F48FEB860D8A3118F484
:100F900099EC592E06C08FE9860D8A3128F589EA29
:100FA000582E560C852D90E08C179D07ECF467FDAC
:100FB00017C0C216D306E406F50678F0C501B401E1
:100FC000C7DC9B01AC01250D311D411D511D213098
:100FD00031054105B0E85B0710F06FEF01C061E03B
:100FE0003196D1016C90C9CF872D81700115110503
:100FF00071F0662329F03197D801ED93FC9307C077
:1010000071FE19C03297D801ED93FC9314C067FFAD
:1010100012C0882329F020E030E040E050E804C00E
:101020002FEF3FEF4FEF5FE782E290E09093E10513
:101030008093E00516C0882341F050954095309587
:1010400021953F4F4F4F5F4F0CC057FF0AC082E2C0
:1010500090E09093E1058093E0052FEF3FEF4FEF95
:101060005FE7B901CA0104C060E070E080E090E091
:10107000DF91CF911F910F91FF90EF90DF90CF9074
:10108000BF90AF909F908F907F906F905F903F90B8
:101090002F90089591114BC2803219F089508550DC
:1010A000D0F70895FB01DC0102C001900D92415080
:1010B0005040D8F70895FB01DC018D910190801913
:1010C0000110D9F3990B0895FB01DC0101900D92F9
:1010D0000020E1F70895CF93DF93CDB7DEB7FE018F
:1010E000359661917191AF018091DC059091DD059C
:1010F00030D0DF91CF9108950F931F93CF93DF935B
:10110000E091DC05F091DD05238121FF1BC0EC019E
:1011100000E010E089916091DC057091DD05DB0154
:101120001896ED91FC911997882331F00995892B38
:1011300089F30FEF1FEFEECF8AE00995892B11F4A9
:10114000C80102C08FEF9FEFDF91CF911F910F91E8
:1011500008952F923F924F925F926F927F928F925B
:101160009F92AF92BF92CF92DF92EF92FF920F9336
:101170001F93CF93DF93CDB7DEB72C970FB6F894BC
:10118000DEBF0FBECDBF7C016B018A01FC0117825F
:101190001682838181FFB0C1CE0101964C01F70117
:1011A0009381F60193FD859193FF81916F018823CF
:1011B00009F49EC1853239F493FD859193FF8191A5
:1011C0006F01853221F4B70190E0CAD1E8CF512CEC
:1011D000312C20E02032A0F48B3269F030F48032E0
:1011E00059F0833269F420612CC08D3239F080339C
:1011F00039F4216026C02260246023C0286021C009
:1012000027FD27C030ED380F3A3078F426FF06C0AE
:10121000FAE05F9E300D1124532E13C08AE0389EF1
:10122000300D1124332E20620CC08E3221F426FDA5
:101230005FC1206406C08C3611F4206802C0883675
:1012400041F4F60193FD859193FF81916F01811126
:10125000C1CF982F9F7D9554933028F40C5F1F4F7A
:10126000FFE3F9830DC0833631F0833771F08335A6
:1012700009F057C021C0F801808189830E5F1F4F9C
:1012800044244394512C540114C03801F2E06F0EF1
:10129000711CF801A080B18026FF03C0652D70E0AD
:1012A00002C06FEF7FEFC5012C874FD12C01830166
:1012B0002C852F77222E16C03801F2E06F0E711C9C
:1012C000F801A080B18026FF03C0652D70E002C048
:1012D0006FEF7FEFC5012C872DD12C012C85206865
:1012E000222E830123FC19C0832D90E04816590655
:1012F000A0F4B70180E290E033D13A94F5CFF50144
:1013000027FC859127FE81915F01B70190E028D1EC
:1013100031103A94F1E04F1A51084114510479F711
:10132000DEC0843611F0893631F5F80127FF07C099
:1013300060817181828193810C5F1F4F08C0608141
:101340007181882777FD8095982F0E5F1F4F2F762C
:10135000B22E97FF09C090958095709561957F4F4B
:101360008F4F9F4F2068B22E2AE030E0A4012AD18F
:10137000A82EA81843C0853729F42F7EB22E2AE064
:1013800030E025C0F22FF97FBF2E8F36C1F018F460
:10139000883579F0ADC0803719F0883721F0A8C0C2
:1013A0002F2F2061B22EB4FE0DC08B2D8460B82E7D
:1013B00009C024FF0AC09F2F9660B92E06C028E0FE
:1013C00030E005C020E130E002C020E132E0F80169
:1013D000B7FE07C060817181828193810C5F1F4FCE
:1013E00006C06081718180E090E00E5F1F4FA40114
:1013F000E9D0A82EA818FB2DFF77BF2EB6FE0BC094
:101400002B2D2E7FA51450F4B4FE0AC0B2FC08C0E8
:101410002B2D2E7E05C07A2C2B2D03C07A2C01C0DB
:10142000752C24FF0DC0FE01EA0DF11D8081803373
:1014300011F4297E09C022FF06C07394739404C07E
:10144000822F867809F0739423FD12C020FF06C016
:101450005A2C731418F4530C5718732C731460F42B
:10146000B70180E290E02C877BD073942C85F6CF77
:10147000731410F4371801C0312C24FF11C0B701C8
:1014800080E390E02C876CD02C8522FF16C021FFD2
:1014900003C088E590E002C088E790E0B7010CC087
:1014A000822F867851F021FD02C080E201C08BE2DC
:1014B00027FD8DE2B70190E053D0A51430F4B701B9
:1014C00080E390E04DD05A94F8CFAA94F401EA0D4D
:1014D000F11D8081B70190E043D0A110F6CF3320F9
:1014E00009F45DCEB70180E290E03AD03A94F7CFAC
:1014F000F7018681978102C08FEF9FEF2C960FB680
:10150000F894DEBF0FBECDBFDF91CF911F910F9139
:10151000FF90EF90DF90CF90BF90AF909F908F9013
:101520007F906F905F904F903F902F9008959927F4
:1015300088270895FC010590615070400110D8F78C
:10154000809590958E0F9F1F0895FC01615070400B
:1015500001900110D8F7809590958E0F9F1F0895E8
:101560000F931F93CF93DF93182F092FEB018B81DC
:1015700081FD03C08FEF9FEF20C082FF10C04E811E
:101580005F812C813D81421753077CF4E881F9810A
:101590009F012F5F3F4F39832883108306C0E88562
:1015A000F985812F0995892B29F72E813F812F5F9E
:1015B0003F4F3F832E83812F902FDF91CF911F913B
:1015C0000F910895FA01AA27283051F1203181F1B5
:1015D000E8946F936E7F6E5F7F4F8F4F9F4FAF4F3B
:1015E000B1E03ED0B4E03CD0670F781F891F9A1F4E
:1015F000A11D680F791F8A1F911DA11D6A0F711D02
:10160000811D911DA11D20D009F468943F912AE00D
:10161000269F11243019305D3193DEF6CF010895F5
:10162000462F4770405D4193B3E00FD0C9F7F6CF26
:10163000462F4F70405D4A3318F0495D31FD4052EE
:10164000419302D0A9F7EACFB4E0A6959795879584
:1016500077956795BA95C9F7009761057105089563
:101660009B01AC010A2E069457954795379527950F
:10167000BA95C9F7620F731F841F951FA01D0895A7
:04168000F894FFCF0C
:101684000000E20520000000000200000000C90282
:1016940000000000496E76616C6964206E756D62AD
:1016A4006572206F6620617267732C206763642003
:1016B4007265717569726573203200617267756D48
:1016C400656E745F30203C3D20256C642076616C2F
:1016D400756520636C616D70656420746F20256C82
:1016E400640A00617267756D656E745F30203E3DFB
:1016F40020256C642076616C756520636C616D7067
:10170400656420746F20256C640A00617267756DCE
:10171400656E745F31203C3D20256C642076616CDD
:10172400756520636C616D70656420746F20256C31
:10173400640A00617267756D656E745F31203E3DA9
:1017440020256C642076616C756520636C616D7016
:10175400656420746F20256C640A00496E76616CA0
:101764006964206E756D626572206F6620617267B0
:10177400732C206C636D20726571756972657320BA
:1017840032006F766572666C6F772064657465638A
:101794007465642C2074686520726573756C74209C
:1017A40077696C6C20626520696E76616C6964008F
:1017B4002400676364006C636D005468697320746B
:1017C40065726D696E616C20697320636F6E6E65FE
:1017D4006374656420746F207468652055415254A5
:1017E4003020706F7274206F6620612073696D758C
:1017F4006C61746564204156522E205468697320CC
:101804007465787420616E64207468652070726FEA
:101814006D70742062656C6F7720617265207072E0
:10182400696E7465642062792074686520646566F5
:1018340061756C742070726F6772616D2C20796FA2
:10184400752063616E206C6F616420796F757220FE
:101854006F776E2070726F6772616D206279207588
:1018640073696E6720746865206C6F6164206275AB
:1018740074746F6E2061626F76652E0A0A5468650F
:101884007265206973206120636F7079206F662010
:10189400746869732064656661756C742070726F16
:1018A4006772616D20617320616E2041746D656C97
:1018B4002053747564696F2070726F6A6563742055
:1018C4006F6E20746865204156526A7320476974AC
:1018D40048756220706167653A2068747470733A61
:1018E4002F2F6769746875622E636F6D2F6176722E
:1018F4006A732F6176726A7320697420636F6E74E1
:1019040061696E73205541525420726F7574696E0B
:10191400657320616E6420696D706C656D656E74AD
:1019240073207072696E746620746F20676574200A
:10193400796F752073746172746564207072696E56
:1019440074696E67207468696E677320746F20749D
:10195400686973207465726D696E616C2E20506CB9
:1019640065617365206E6F746520746861742069A5
:101974006E746572727570747320617265206E6F17
:10198400742063757272656E746C792073757070EF
:101994006F727465642C20746869732073686F7542
:1019A4006C64206368616E676520736F6F6E2E0AC6
:1019B4000A54484953204953204120544553542C38
:1019C40020706C65617365207265706F727420613C
:1019D4006E79206275677320746F20746865204186
:1019E40056526A732047697448756220706167654E
:1019F400206C696E6B656420696E2074686520666E
:101A04006F6F7465722E205468616E6B73210A0ABD
:101A140044656D6F207465726D696E616C20636FCF
:101A24006D6D616E64733A0A22676364206120629B
:101A3400220A7768657265206120616E64206220E5
:101A440061726520696E7465676572732C207468B1
:101A5400697320636F6D6D616E642077696C6C20AF
:101A64007072696E7420746865206772656174654C
:101A7400737420636F6D6D6F6E2064697669736F24
:101A840072206F66207468652032206E756D626501
:101A940072732070726F766964696E67207468650A
:101AA400792063616E2066697420696E20736967AA
:101AB4006E65642033322062697420696E74730A1F
:101AC400226C636D20612062220A7768657265204A
:101AD4006120616E6420622061726520696E7465A4
:101AE400676572732C207468697320636F6D6D6110
:101AF4006E642077696C6C207072696E74207468EF
:101B040065206C6F7765737420636F6D6D6F6E20E5
:101B14006D756C7469706C65206F662074686520DF
:101B240032206E756D626572732070726F766964AF
:101B3400696E672069742063616E20666974206928
:101B44006E2061207369676E656420333220626998
:061B54007420696E7400AC
:00000001FF
