:1000000045C0000061C000005FC000005DC000008E
:100010005BC0000059C0000057C0000055C0000080
:1000200053C0000051C000004FC000004DC0000090
:100030004BC0000049C0000047C0000045C00000A0
:1000400043C0000041C000003FC000003DC00000B0
:100050003BC0000039C0000037C0000035C00000C0
:1000600033C0000031C000002FC000002DC00000D0
:100070002BC0000029C0000027C0000025C00000E0
:1000800023C0000021C000001FC0000011241FBEBB
:10009000CFEFD0E1DEBFCDBF15E0A0E0B1E0EEE4F0
:1000A000F6E100E00BBF02C007900D92A036B10749
:1000B000D9F725E0A0E6B5E001C01D92AC36B20745
:1000C000E1F790D10C94250B9BCFD4D180E008951B
:1000D0004F925F926F927F928F929F92AF92BF9258
:1000E000CF92DF92EF92FF926B017C0199233CF457
:1000F000CC24DD247601C61AD70AE80AF90A2601BB
:10010000370149015A0155233CF4882499245401AC
:10011000821A930AA40AB50A7501640141145104B4
:1001200061047104A1F081149104A104B104A1F04F
:10013000C301B201A7019601FFD3611571058105C5
:10014000910579F0260137016B017C01F1CFF82D83
:10015000E92D8A2D9B2D09C0F42DE52D862D972D97
:1001600004C0FC2DED2D8E2D9F2D6F2F7E2FFF9027
:10017000EF90DF90CF90BF90AF909F908F907F9047
:100180006F905F904F9008958F929F92AF92BF9221
:10019000CF92DF92EF92FF92CF93DF93EA01633029
:1001A000710521F084E191E08CD764C040E050E01B
:1001B00060E070E08A819B8121D66B017C01DC01CB
:1001C000CB010197A109B0488E3F9F4FAF4FBF4F62
:1001D000A8F0FF92EF92DF92CF928B818F938A816A
:1001E0008F938CE391E09F938F935AD78DB79EB7EF
:1001F00008960FB6F8949EBF0FBE8DBF40E050E04A
:1002000060E070E08C819D81F9D54B015C01DC01DF
:10021000CB010197A109B0488E3F9F4FAF4FBF4F11
:10022000A8F0BF92AF929F928F928D818F938C8115
:100230008F938CE391E09F938F9332D78DB79EB7C6
:1002400008960FB6F8949EBF0FBE8DBFA50194010E
:10025000C701B6013DDF9F938F937F936F9388EA29
:1002600091E09F938F931CD70F900F900F900F905A
:100270000F900F90DF91CF91FF90EF90DF90CF9094
:10028000BF90AF909F908F9008958F929F92AF9262
:10029000BF92CF92DF92EF92FF920F931F93CF9373
:1002A000DF93EA016330710521F084E691E009D71C
:1002B0008CC040E050E060E070E08A819B819ED578
:1002C0004B015C01DC01CB010197A109B0488E3FD5
:1002D0009F4FAF4FBF4FA8F0BF92AF929F928F92A8
:1002E0008B818F938A818F938CE391E09F938F937F
:1002F000D7D68DB79EB708960FB6F8949EBF0FBE9F
:100300008DBF40E050E060E070E08C819D8176D54B
:100310006B017C01DC01CB010197A109B0488E3F44
:100320009F4FAF4FBF4FA8F0FF92EF92DF92CF9257
:100330008D818F938C818F938CE391E09F938F932A
:10034000AFD68DB79EB708960FB6F8949EBF0FBE76
:100350008DBFA7019601C501B401BADE9B01AC01B6
:10036000C501B401E9D249015A01C701B601D5D28C
:10037000C62FD72F182F092FA7019601DDD22815D8
:1003800039054A055B0591F08FE78F938FEF8F93C7
:100390008F938F938CE891E09F938F9381D60F90EA
:1003A0000F900F900F900F900F900FC00F931F930F
:1003B000DF93CF9388EA91E09F938F9371D60F904C
:1003C0000F900F900F900F900F90DF91CF911F9192
:1003D0000F91FF90EF90DF90CF90BF90AF909F90E4
:1003E0008F900895CF93DF93CDB7DEB7C056D10974
:1003F0000FB6F894DEBF0FBECDBF58D08EEA91E0A5
:1004000060D645E650E065E575E0CE01019646D23E
:10041000892B21F520E030E044EC50E067E575E001
:10042000CE01019677D020E030E045E451E06BE565
:1004300075E0CE0101966ED0CE01805A9F4F22D03A
:1004400018161906CCF7A1966FADA197CE010196AB
:10045000C7D099238CF7CE010196E2D18FEF9FEFA1
:10046000C05ADF4F0FB6F894DEBF0FBECDBFDF918D
:10047000CF9108955D9BFECF8CB90895FBDF80E09E
:1004800090E008955F9B06C02CB1FC01208381E0C1
:1004900090E0089580E090E0089589B990939000ED
:1004A00088E18AB98EE080939500089583E390E017
:1004B000F4DF86E091E090936705809366050895E8
:1004C000EF92FF920F931F93CF93DF937C01DB0199
:1004D0008C918823A9F08B010F5F1F4FC0E0D0E003
:1004E000B3E5EB0EF11CD701ED91FC91099581115B
:1004F00009C02196F80181918F018111F4CF02C0CA
:10050000C0E0D0E0CE01DF91CF911F910F91FF901D
:10051000EF900895AF92BF92CF92DF92EF92FF9249
:100520000F931F93CF93DF93EC018B015A01690165
:10053000FB0101900020E9F7CF01861B970B53D2F6
:100540007C01009709F43FC0B801A3D5FE01E75A2A
:10055000FF4F80819181019691838083BC01660F5A
:10056000771F860F971FBC01660F771F3297808118
:10057000918160D3009751F4C75ADF4F88819981E8
:100580000197998388838FEF9FEF1FC0FE01E95A7F
:10059000FF4F91838083C75ADF4F28813981F9014A
:1005A000EE0FFF1F2E0F3F1FF901EE0FFF1F3697B3
:1005B000E80FF91FF582E482B182A082D382C28261
:1005C00080E090E002C08FEF9FEFDF91CF911F910D
:1005D0000F91FF90EF90DF90CF90BF90AF90089574
:1005E0005F926F927F928F929F92AF92BF92CF92C3
:1005F000DF92EF92FF920F931F93CF93DF936C01E3
:100600006A3009F4F0C06D3021F0683009F0D5C0CF
:10061000B3C0FC01EF5AFF4FA081B181A80FB91FF1
:100620001C9280819181892B09F443C0E60180E20C
:1006300000E010E046019DE5890E911C3601ABE516
:100640006A0E711C5F017E015880803209F0D4C0AF
:10065000E0E25E1619F1D4016D917C9111976F5F04
:100660007F4F6D937C93660F771FF301808191819B
:10067000E1D2009709F4BAC0D3018D939C93F401A1
:100680002081318121503048220F331FFC01E20FBD
:10069000F31FD183C08302C0D7011C920F5F1F4F8D
:1006A0002196F501808191810817190710F4852D95
:1006B000CACFE601CD5ADF4FE881F9818DE0099577
:1006C000E881F9818AE00995F601E35AFF4FE0805D
:1006D000F180E114F10409F442C0369780809180E2
:1006E000329680819181EC01CC0FDD1F8C0F9D1F14
:1006F000EC01CC0FDD1FC80DD91D8C169D0611F124
:100700003296A080B180D5010D911C9106C0B6E053
:100710008B0E911CC815D905A9F0B801F40184818C
:100720009581AED4892B99F7C815D90559F0D40114
:10073000ED91FC911197A501B70112968D919C91B5
:1007400013970995E601C55ADF4F88819981E3D156
:10075000F601E35AFF4F1182108219821882F601C6
:10076000EF5AFF4F11821082349660817181C60169
:10077000A7DE80E090E044C0FC01EF5AFF4F80818B
:100780009181892BB1F1E601CD5ADF4FE881F981E2
:1007900088E00995E881F98180E20995E881F9818D
:1007A00088E00995F601EF5AFF4F8081918101970A
:1007B0009183808380E090E023C0FC01EF5AFF4FDB
:1007C00020813181DC01A20FB31F6C932F5F3F4F5B
:1007D0003183208332960190F081E02D862F099598
:1007E00080E090E00DC080E090E00AC08FEF9FEFC6
:1007F00007C080E090E004C0B0E25B124FCF4CCF66
:10080000DF91CF911F910F91FF90EF90DF90CF90EC
:10081000BF90AF909F908F907F906F905F90089562
:10082000EF92FF920F931F93CF93DF937C01FC0114
:10083000E95AFF4FC081D1813296808191818C012C
:10084000000F111F800F911F8C01000F111F0C0F43
:100850001D1FC017D10739F08C819D815CD1269670
:100860000C171D07C9F7F701E95AFF4F80819181E5
:1008700052D1F701EB5AFF4F808191814CD1F701A2
:10088000E55AFF4F80819181009709F044D1DF91B3
:10089000CF911F910F91FF90EF900895EF92FF92EB
:1008A0000F931F93CF93DF93EC018B017A01FB0130
:1008B00001900020E9F7CF01861B970B94D0FE0131
:1008C000EB5AFF4F918380830097F1F0B801E1D399
:1008D000FE01EF5AFF4F118210823C961182108266
:1008E00032971182108234971182108232961182CF
:1008F00010823697F182E082329660817181CE015A
:10090000DFDD80E090E002C08FEF9FEFDF91CF91BD
:100910001F910F91FF90EF900895DB018F939F93AC
:1009200027D0BF91AF91A29F800D911DA39F900DE5
:10093000B29F900D11240895052E97FB16F4009494
:100940000FD057FD05D01ED007FC02D046F408C0DA
:1009500050954095309521953F4F4F4F5F4F0895EB
:1009600090958095709561957F4F8F4F9F4F08951B
:100970002BD0A59F900DB49F900DA49F800D911D2D
:1009800011240895A1E21A2EAA1BBB1BFD010DC064
:10099000AA1FBB1FEE1FFF1FA217B307E407F5072F
:1009A00020F0A21BB30BE40BF50B661F771F881F0B
:1009B000991F1A9469F760957095809590959B01A1
:1009C000AC01BD01CF010895A29FB001B39FC0014A
:1009D000A39F700D811D1124911DB29F700D811D6B
:1009E0001124911D0895CF93DF938230910510F467
:1009F00082E090E0E0916205F091630520E030E054
:100A0000A0E0B0E0309739F1408151814817590793
:100A1000B8F04817590771F482819381109729F033
:100A200013969C938E9312972CC09093630580939A
:100A3000620527C02115310531F04217530718F020
:100A4000A901DB0101C0EF019A01BD01DF010280B4
:100A5000F381E02DD7CF21153105F9F0281B390B93
:100A60002430310580F48A819B816115710521F064
:100A7000FB019383828304C0909363058093620596
:100A8000FE01329644C0FE01E20FF31F8193919361
:100A900022503109398328833AC020916005309172
:100AA0006105232B41F42091020130910301309321
:100AB000610520936005209100013091010121150D
:100AC000310541F42DB73EB7409104015091050125
:100AD000241B350BE0916005F0916105E217F307E7
:100AE000A0F42E1B3F0B2817390778F0AC014E5F9E
:100AF0005F4F2417350748F04E0F5F1F5093610575
:100B0000409360058193919302C0E0E0F0E0CF0153
:100B1000DF91CF910895CF93DF93009709F487C0B9
:100B2000FC01329713821282C0916205D091630555
:100B3000209781F420813181280F391F8091600531
:100B4000909161058217930779F5F0936105E09321
:100B500060056DC0DE0120E030E0AE17BF0750F445
:100B600012964D915C9113979D014115510509F124
:100B7000DA01F3CFB383A28340815181840F951FA3
:100B80008A179B0771F48D919C911197840F951F83
:100B900002969183808312968D919C9113979383F3
:100BA00082832115310529F4F0936305E0936205F2
:100BB0003EC0D9011396FC93EE9312974D915D912F
:100BC000A40FB51FEA17FB0779F480819181840F88
:100BD000951F0296D90111969C938E9382819381E1
:100BE00013969C938E931297E0E0F0E08A819B81AC
:100BF000009719F0FE01EC01F9CFCE010296288191
:100C00003981820F931F209160053091610528176B
:100C1000390769F4309729F4109263051092620540
:100C200002C013821282D0936105C0936005DF91E8
:100C3000CF9108956F927F928F929F92AF92BF92C1
:100C4000CF92DF92EF92FF920F931F93CF93DF9398
:100C5000EC01CB01209779F4DF91CF911F910F9197
:100C6000FF90EF90DF90CF90BF90AF909F908F90CC
:100C70007F906F90B8CEFE01E60FF71F9E012250C5
:100C80003109E217F30708F4A8C0D9010D911C91AE
:100C9000119706171707B0F00530110508F49BC02F
:100CA000A801445051094617570708F494C0025050
:100CB0001109061B170B019311936D937C93CF01C0
:100CC0002ADF89C05B01A01AB10A4E01800E911E75
:100CD000A0916205B0916305612C712C60E070E019
:100CE000109709F449C0A815B905C9F5ED90FC9015
:100CF0001197670142E0C40ED11CCA14DB0478F1DD
:100D000047018A189B08640142E0C40ED11C129668
:100D1000BC9012971396AC91B5E0CB16D10440F07D
:100D2000B282A38391828082D9018D939C9309C062
:100D30000E5F1F4F0E0D1F1DF90111830083EB2D58
:100D4000FA2F6115710531F0DB011396FC93EE93D8
:100D5000129741C0F0936305E09362053CC06D912A
:100D60007C9111976616770608F43B01BD01129637
:100D70000D90BC91A02DB4CF60916005709161057C
:100D800068157905E9F468167906D0F440910001F8
:100D9000509101014115510541F44DB75EB7609185
:100DA000040170910501461B570BE417F507A8F4E1
:100DB000F0936105E0936005F901918380830BC096
:100DC00012DE7C01009749F0A801BE0150D1CE018E
:100DD000A2DEC70104C0CE0102C080E090E0DF9136
:100DE000CF911F910F91FF90EF90DF90CF90BF9028
:100DF000AF909F908F907F906F9008952F923F9229
:100E00005F926F927F928F929F92AF92BF92CF929A
:100E1000DF92EF92FF920F931F93CF93DF938B019B
:100E2000EA016115710521F0DB018C9311969C9309
:100E3000209739F09E01225031092332310508F004
:100E4000F8C07C016701BFEFCB1ADB0A5601F7013E
:100E50006080862D90E003D1892B11F07601F2CFCE
:100E6000FDE26F120AC0570182E0A80EB11CD70143
:100E700011966C90772473940BC0BBE26B1207C081
:100E80005701E2E0AE0EB11CD70111966C90712CA7
:100E9000CE018F7E892B89F4B0E36B1222C0F5015D
:100EA00080818F7D883541F56180F2E0AF0EB11C05
:100EB000872D8260782EC0E1D0E0C830D105F1F0F6
:100EC0004CF4C230D10511F5C12CD12CE12CB0E489
:100ED000FB2E2EC0CA30D10531F0C031D10519F139
:100EE00015C0209751F7CAE0D0E0ACECCA2EDC2C3C
:100EF000EC2CACE0FA2E1CC02097F9F6C8E0D0E04C
:100F0000C12CD12CE12CF0E1FF2E12C060E070E08A
:100F100080E090E89E01442737FD4095542F32DD54
:100F200069017A0105C0C12CD12CE12CE8E0FE2E2C
:100F3000F50160E020E030E0A9014E01AA2497FC11
:100F4000A094BA2C1F0170ED572E560CA9E0A515E0
:100F500070F48FEB860D8A3118F499EC592E06C087
:100F60008FE9860D8A3128F589EA582E560C852D91
:100F700090E08C179D07ECF467FD17C0C216D306EE
:100F8000E406F50678F0C501B401C7DC9B01AC01AD
:100F9000250D311D411D511D213031054105B0E8A0
:100FA0005B0710F06FEF01C061E03196D1016C90EA
:100FB000C9CF872D81700115110571F0662329F0C5
:100FC0003197D801ED93FC9307C071FE19C0329799
:100FD000D801ED93FC9314C067FF12C0882329F059
:100FE00020E030E040E050E804C02FEF3FEF4FEF4B
:100FF0005FE782E290E090936B0580936A0516C0EC
:10100000882341F050954095309521953F4F4F4FA3
:101010005F4F0CC057FF0AC082E290E090936B05CF
:1010200080936A052FEF3FEF4FEF5FE7B901CA01E9
:1010300004C060E070E080E090E0DF91CF911F910C
:101040000F91FF90EF90DF90CF90BF90AF909F9067
:101050008F907F906F905F903F902F9008959111A7
:101060004BC2803219F089508550D0F70895FB01AA
:10107000DC0102C001900D9241505040D8F7089514
:10108000FB01DC018D91019080190110D9F3990BBE
:101090000895FB01DC0101900D920020E1F7089515
:1010A000CF93DF93CDB7DEB7FE0135966191719195
:1010B000AF01809166059091670530D0DF91CF91A7
:1010C00008950F931F93CF93DF93E0916605F091FE
:1010D0006705238121FF1BC0EC0100E010E089912E
:1010E0006091660570916705DB011896ED91FC91A2
:1010F0001997882331F00995892B89F30FEF1FEF9A
:10110000EECF8AE00995892B11F4C80102C08FEF58
:101110009FEFDF91CF911F910F9108952F923F92F2
:101120004F925F926F927F928F929F92AF92BF92F7
:10113000CF92DF92EF92FF920F931F93CF93DF93A3
:10114000CDB7DEB72C970FB6F894DEBF0FBECDBF7C
:101150007C016B018A01FC0117821682838181FF69
:10116000B0C1CE0101964C01F7019381F60193FDC8
:10117000859193FF81916F01882309F49EC1853287
:1011800039F493FD859193FF81916F01853221F4AC
:10119000B70190E0CAD1E8CF512C312C20E02032A9
:1011A000A0F48B3269F030F4803259F0833269F464
:1011B00020612CC08D3239F0803339F4216026C093
:1011C0002260246023C0286021C027FD27C030EDA5
:1011D000380F3A3078F426FF06C0FAE05F9E300DF3
:1011E0001124532E13C08AE0389E300D1124332E63
:1011F00020620CC08E3221F426FD5FC1206406C03F
:101200008C3611F4206802C0883641F4F60193FD53
:10121000859193FF81916F018111C1CF982F9F7D9F
:101220009554933028F40C5F1F4FFFE3F9830DC0F2
:10123000833631F0833771F0833509F057C021C010
:10124000F801808189830E5F1F4F44244394512C01
:10125000540114C03801F2E06F0E711CF801A08037
:10126000B18026FF03C0652D70E002C06FEF7FEFF5
:10127000C5012C874FD12C0183012C852F77222E7D
:1012800016C03801F2E06F0E711CF801A080B18029
:1012900026FF03C0652D70E002C06FEF7FEFC50130
:1012A0002C872DD12C012C852068222E830123FC34
:1012B00019C0832D90E048165906A0F4B70180E2CA
:1012C00090E033D13A94F5CFF50127FC859127FEC4
:1012D00081915F01B70190E028D131103A94F1E09B
:1012E0004F1A51084114510479F7DEC0843611F0C9
:1012F000893631F5F80127FF07C06081718182814D
:1013000093810C5F1F4F08C060817181882777FD32
:101310008095982F0E5F1F4F2F76B22E97FF09C032
:1013200090958095709561957F4F8F4F9F4F206866
:10133000B22E2AE030E0A4012AD1A82EA81843C07A
:10134000853729F42F7EB22E2AE030E025C0F22F17
:10135000F97FBF2E8F36C1F018F4883579F0ADC013
:10136000803719F0883721F0A8C02F2F2061B22EC6
:10137000B4FE0DC08B2D8460B82E09C024FF0AC0B6
:101380009F2F9660B92E06C028E030E005C020E10E
:1013900030E002C020E132E0F801B7FE07C0608112
:1013A0007181828193810C5F1F4F06C060817181C2
:1013B00080E090E00E5F1F4FA401E9D0A82EA8188E
:1013C000FB2DFF77BF2EB6FE0BC02B2D2E7FA51455
:1013D00050F4B4FE0AC0B2FC08C02B2D2E7E05C00E
:1013E0007A2C2B2D03C07A2C01C0752C24FF0DC044
:1013F000FE01EA0DF11D8081803311F4297E09C0C0
:1014000022FF06C07394739404C0822F867809F07B
:10141000739423FD12C020FF06C05A2C731418F4D5
:10142000530C5718732C731460F4B70180E290E0EA
:101430002C877BD073942C85F6CF731410F4371857
:1014400001C0312C24FF11C0B70180E390E02C874C
:101450006CD02C8522FF16C021FF03C088E590E0E8
:1014600002C088E790E0B7010CC0822F867851F067
:1014700021FD02C080E201C08BE227FD8DE2B701B1
:1014800090E053D0A51430F4B70180E390E04DD044
:101490005A94F8CFAA94F401EA0DF11D8081B701A6
:1014A00090E043D0A110F6CF332009F45DCEB70110
:1014B00080E290E03AD03A94F7CFF70186819781A5
:1014C00002C08FEF9FEF2C960FB6F894DEBF0FBED1
:1014D000CDBFDF91CF911F910F91FF90EF90DF90E3
:1014E000CF90BF90AF909F908F907F906F905F90C4
:1014F0004F903F902F900895992788270895FC01D9
:101500000590615070400110D8F7809590958E0F2E
:101510009F1F0895FC016150704001900110D8F7A1
:10152000809590958E0F9F1F08950F931F93CF93D3
:10153000DF93182F092FEB018B8181FD03C08FEF03
:101540009FEF20C082FF10C04E815F812C813D81C2
:10155000421753077CF4E881F9819F012F5F3F4FC9
:1015600039832883108306C0E885F985812F099582
:10157000892B29F72E813F812F5F3F4F3F832E8399
:10158000812F902FDF91CF911F910F910895FA0134
:10159000AA27283051F1203181F1E8946F936E7FB2
:1015A0006E5F7F4F8F4F9F4FAF4FB1E03ED0B4E0A3
:1015B0003CD0670F781F891F9A1FA11D680F791FE4
:1015C0008A1F911DA11D6A0F711D811D911DA11DF5
:1015D00020D009F468943F912AE0269F1124301905
:1015E000305D3193DEF6CF010895462F4770405DA0
:1015F0004193B3E00FD0C9F7F6CF462F4F70405D4F
:101600004A3318F0495D31FD4052419302D0A9F7A9
:10161000EACFB4E0A6959795879577956795BA95A3
:10162000C9F700976105710508959B01AC010A2E69
:1016300006945795479537952795BA95C9F7620F40
:0E164000731F841F951FA01D0895F894FFCFFF
:10164E0000006C05200000000002000000003E02B9
:10165E0000000000496E76616C6964206E756D62E3
:10166E006572206F6620617267732C206763642039
:10167E00726571756972657320320D002573206372
:10168E006C616D70656420746F20256C6420746FBE
:10169E002066697420696E746F203332206269741B
:1016AE00730D0A00496E76616C6964206E756D6209
:1016BE006572206F6620617267732C206C636D20DB
:1016CE00726571756972657320320D006F76657281
:1016DE00666C6F772064657465637465642C207224
:1016EE006573756C74203E20256C640D0A00546879
:1016FE006973207465726D696E616C206973206305
:10170E006F6E6E656374656420746F2074686520F7
:10171E00554152543020706F7274206F66206120D4
:10172E0073696D756C61746564204156522E205438
:10173E00686973207465787420616E6420746865BE
:10174E002070726F6D70742062656C6F772061729D
:10175E0065207072696E74656420627920746865A4
:10176E002064656661756C742070726F6772616D4E
:10177E002C20796F752063616E206C6F6164207907
:10178E006F7572206F776E2070726F6772616D2049
:10179E006279207573696E6720746865206C6F615D
:1017AE006420627574746F6E2061626F76652E0DA3
:1017BE000A0D0A5468657265206973206120636F93
:1017CE007079206F66207468697320646566617530
:1017DE006C742070726F6772616D20617320616E20
:1017EE002041746D656C2053747564696F2070723E
:1017FE006F6A656374206F6E20746865204156525F
:10180E006A732047697448756220706167653A2073
:10181E0068747470733A2F2F6769746875622E63DB
:10182E006F6D2F6176726A732F6176726A7320699B
:10183E007420636F6E7461696E732055415254202B
:10184E00726F7574696E657320616E6420696D7058
:10185E006C656D656E7473207072696E746620743B
:10186E006F2067657420796F75207374617274656B
:10187E0064207072696E74696E67207468696E6731
:10188E007320746F2074686973207465726D696E4D
:10189E00616C2E20506C65617365206E6F746520CF
:1018AE007468617420696E746572727570747320D9
:1018BE00617265206E6F742063757272656E746CE2
:1018CE007920737570706F727465642C20746869FA
:1018DE00732073686F756C64206368616E67652032
:1018EE00736F6F6E2E0D0A0D0A54484953204953DB
:1018FE00204120544553542C20706C656173652033
:10190E007265706F727420616E79206275677320D4
:10191E00746F20746865204156526A73204769744B
:10192E004875622070616765206C696E6B65642016
:10193E00696E2074686520666F6F7465722E205410
:10194E0068616E6B73210D0A0D0A44656D6F20740C
:10195E0065726D696E616C20636F6D6D616E64731F
:10196E003A0D0A2267636420612062220D0A7768AD
:10197E00657265206120616E64206220617265204F
:10198E00696E7465676572732C2074686973206361
:10199E006F6D6D616E642077696C6C207072696E0C
:1019AE007420746865206772656174657374206352
:1019BE006F6D6D6F6E2064697669736F72206F66DE
:1019CE00207468652032206E756D626572732070AA
:1019DE00726F766964696E672074686579206361D9
:1019EE006E2066697420696E207369676E65642067
:1019FE0033322062697420696E74730D0A226C632F
:101A0E006D20612062220D0A776865726520612063
:101A1E00616E6420622061726520696E746567650F
:101A2E0072732C207468697320636F6D6D616E64C0
:101A3E002077696C6C207072696E742074686520F2
:101A4E006C6F7765737420636F6D6D6F6E206D753F
:101A5E006C7469706C65206F662074686520322026
:101A6E006E756D626572732070726F766964696EE1
:101A7E00672069742063616E2066697420696E2028
:101A8E0061207369676E6564203332206269742049
:101A9E00696E740D002400676364006C636D000052
:00000001FF
